{
  "_format": "hh-sol-artifact-1",
  "contractName": "ERC20Pay",
  "sourceName": "contracts/ERC20Pay.sol",
  "abi": [
    {
      "inputs": [
        {
          "internalType": "address",
          "name": "_currencyERC20Address",
          "type": "address"
        },
        {
          "internalType": "address",
          "name": "_payeeAddress",
          "type": "address"
        },
        {
          "internalType": "string",
          "name": "_currencyName",
          "type": "string"
        }
      ],
      "stateMutability": "nonpayable",
      "type": "constructor"
    },
    {
      "anonymous": false,
      "inputs": [
        {
          "indexed": false,
          "internalType": "string",
          "name": "currencyName",
          "type": "string"
        }
      ],
      "name": "CurrencyAdded",
      "type": "event"
    },
    {
      "anonymous": false,
      "inputs": [
        {
          "indexed": false,
          "internalType": "string",
          "name": "currencyName",
          "type": "string"
        }
      ],
      "name": "CurrencyDisabled",
      "type": "event"
    },
    {
      "anonymous": false,
      "inputs": [
        {
          "indexed": true,
          "internalType": "uint256",
          "name": "itemNo",
          "type": "uint256"
        },
        {
          "indexed": true,
          "internalType": "string",
          "name": "name",
          "type": "string"
        },
        {
          "indexed": true,
          "internalType": "address",
          "name": "currency",
          "type": "address"
        }
      ],
      "name": "ItemAdded",
      "type": "event"
    },
    {
      "anonymous": false,
      "inputs": [
        {
          "indexed": true,
          "internalType": "uint256",
          "name": "itemId",
          "type": "uint256"
        },
        {
          "indexed": true,
          "internalType": "address",
          "name": "buyer",
          "type": "address"
        },
        {
          "indexed": false,
          "internalType": "uint256",
          "name": "amount",
          "type": "uint256"
        }
      ],
      "name": "ItemBought",
      "type": "event"
    },
    {
      "anonymous": false,
      "inputs": [
        {
          "indexed": true,
          "internalType": "uint256",
          "name": "itemNo",
          "type": "uint256"
        }
      ],
      "name": "ItemDeactivated",
      "type": "event"
    },
    {
      "anonymous": false,
      "inputs": [
        {
          "indexed": true,
          "internalType": "address",
          "name": "previousOwner",
          "type": "address"
        },
        {
          "indexed": true,
          "internalType": "address",
          "name": "newOwner",
          "type": "address"
        }
      ],
      "name": "OwnershipTransferred",
      "type": "event"
    },
    {
      "anonymous": false,
      "inputs": [
        {
          "indexed": true,
          "internalType": "address",
          "name": "currencyAddres",
          "type": "address"
        },
        {
          "indexed": false,
          "internalType": "address",
          "name": "newPayeeAddress",
          "type": "address"
        }
      ],
      "name": "PayeeAddressUpdated",
      "type": "event"
    },
    {
      "inputs": [
        {
          "internalType": "address",
          "name": "_ERC20ContractAddress",
          "type": "address"
        },
        {
          "internalType": "address",
          "name": "_payeeAddress",
          "type": "address"
        },
        {
          "internalType": "string",
          "name": "_currencyName",
          "type": "string"
        }
      ],
      "name": "addCurrency",
      "outputs": [],
      "stateMutability": "nonpayable",
      "type": "function"
    },
    {
      "inputs": [
        {
          "internalType": "string",
          "name": "_itemName",
          "type": "string"
        },
        {
          "internalType": "address",
          "name": "_currency",
          "type": "address"
        },
        {
          "internalType": "uint256",
          "name": "_price",
          "type": "uint256"
        }
      ],
      "name": "addItem",
      "outputs": [
        {
          "internalType": "uint256",
          "name": "",
          "type": "uint256"
        }
      ],
      "stateMutability": "nonpayable",
      "type": "function"
    },
    {
      "inputs": [
        {
          "internalType": "uint256",
          "name": "_itemId",
          "type": "uint256"
        }
      ],
      "name": "buyItem",
      "outputs": [],
      "stateMutability": "nonpayable",
      "type": "function"
    },
    {
      "inputs": [
        {
          "internalType": "uint256",
          "name": "_itemId",
          "type": "uint256"
        }
      ],
      "name": "deactivateItem",
      "outputs": [],
      "stateMutability": "nonpayable",
      "type": "function"
    },
    {
      "inputs": [
        {
          "internalType": "address",
          "name": "_ERC20ContractAddress",
          "type": "address"
        }
      ],
      "name": "disableCurrency",
      "outputs": [],
      "stateMutability": "nonpayable",
      "type": "function"
    },
    {
      "inputs": [
        {
          "internalType": "address",
          "name": "_currencyAddress",
          "type": "address"
        }
      ],
      "name": "getCurrency",
      "outputs": [
        {
          "components": [
            {
              "internalType": "string",
              "name": "name",
              "type": "string"
            },
            {
              "internalType": "address",
              "name": "payeeAddress",
              "type": "address"
            },
            {
              "internalType": "bool",
              "name": "isActive",
              "type": "bool"
            }
          ],
          "internalType": "struct ERC20Pay.Currency",
          "name": "",
          "type": "tuple"
        }
      ],
      "stateMutability": "view",
      "type": "function"
    },
    {
      "inputs": [
        {
          "internalType": "uint256",
          "name": "_itemId",
          "type": "uint256"
        }
      ],
      "name": "getItem",
      "outputs": [
        {
          "components": [
            {
              "internalType": "uint256",
              "name": "itemId",
              "type": "uint256"
            },
            {
              "internalType": "string",
              "name": "itemName",
              "type": "string"
            },
            {
              "internalType": "contract IERC20",
              "name": "currency",
              "type": "address"
            },
            {
              "internalType": "uint256",
              "name": "price",
              "type": "uint256"
            },
            {
              "internalType": "bool",
              "name": "available",
              "type": "bool"
            }
          ],
          "internalType": "struct ERC20Pay.Item",
          "name": "",
          "type": "tuple"
        }
      ],
      "stateMutability": "view",
      "type": "function"
    },
    {
      "inputs": [],
      "name": "getItemCounter",
      "outputs": [
        {
          "internalType": "uint256",
          "name": "",
          "type": "uint256"
        }
      ],
      "stateMutability": "view",
      "type": "function"
    },
    {
      "inputs": [],
      "name": "getName",
      "outputs": [
        {
          "internalType": "string",
          "name": "",
          "type": "string"
        }
      ],
      "stateMutability": "pure",
      "type": "function"
    },
    {
      "inputs": [],
      "name": "getOwner",
      "outputs": [
        {
          "internalType": "address",
          "name": "",
          "type": "address"
        }
      ],
      "stateMutability": "view",
      "type": "function"
    },
    {
      "inputs": [],
      "name": "name",
      "outputs": [
        {
          "internalType": "string",
          "name": "",
          "type": "string"
        }
      ],
      "stateMutability": "view",
      "type": "function"
    },
    {
      "inputs": [],
      "name": "owner",
      "outputs": [
        {
          "internalType": "address",
          "name": "",
          "type": "address"
        }
      ],
      "stateMutability": "view",
      "type": "function"
    },
    {
      "inputs": [],
      "name": "renounceOwnership",
      "outputs": [],
      "stateMutability": "nonpayable",
      "type": "function"
    },
    {
      "inputs": [
        {
          "internalType": "address",
          "name": "newOwner",
          "type": "address"
        }
      ],
      "name": "transferOwnership",
      "outputs": [],
      "stateMutability": "nonpayable",
      "type": "function"
    },
    {
      "inputs": [
        {
          "internalType": "address",
          "name": "_currencyAddress",
          "type": "address"
        },
        {
          "internalType": "address",
          "name": "_newPayeeAddress",
          "type": "address"
        }
      ],
      "name": "updatePayeeAddressOfCurrency",
      "outputs": [],
      "stateMutability": "nonpayable",
      "type": "function"
    }
  ],
  "bytecode": "0x60806040523480156200001157600080fd5b50604051620027973803806200279783398181016040528101906200003791906200036f565b620000576200004b6200016a60201b60201c565b6200017260201b60201c565b600060405180606001604052808381526020018473ffffffffffffffffffffffffffffffffffffffff16815260200160011515815250905080600360008673ffffffffffffffffffffffffffffffffffffffff1673ffffffffffffffffffffffffffffffffffffffff1681526020019081526020016000206000820151816000019080519060200190620000ed92919062000236565b5060208201518160010160006101000a81548173ffffffffffffffffffffffffffffffffffffffff021916908373ffffffffffffffffffffffffffffffffffffffff16021790555060408201518160010160146101000a81548160ff0219169083151502179055509050506000600181905550505050506200059c565b600033905090565b60008060009054906101000a900473ffffffffffffffffffffffffffffffffffffffff169050816000806101000a81548173ffffffffffffffffffffffffffffffffffffffff021916908373ffffffffffffffffffffffffffffffffffffffff1602179055508173ffffffffffffffffffffffffffffffffffffffff168173ffffffffffffffffffffffffffffffffffffffff167f8be0079c531659141344cd1fd0a4f28419497f9722a3daafe3b4186f6b6457e060405160405180910390a35050565b8280546200024490620004a7565b90600052602060002090601f016020900481019282620002685760008555620002b4565b82601f106200028357805160ff1916838001178555620002b4565b82800160010185558215620002b4579182015b82811115620002b357825182559160200191906001019062000296565b5b509050620002c39190620002c7565b5090565b5b80821115620002e2576000816000905550600101620002c8565b5090565b6000620002fd620002f78462000407565b620003de565b9050828152602081018484840111156200031657600080fd5b6200032384828562000471565b509392505050565b6000815190506200033c8162000582565b92915050565b600082601f8301126200035457600080fd5b815162000366848260208601620002e6565b91505092915050565b6000806000606084860312156200038557600080fd5b600062000395868287016200032b565b9350506020620003a8868287016200032b565b925050604084015167ffffffffffffffff811115620003c657600080fd5b620003d48682870162000342565b9150509250925092565b6000620003ea620003fd565b9050620003f88282620004dd565b919050565b6000604051905090565b600067ffffffffffffffff82111562000425576200042462000542565b5b620004308262000571565b9050602081019050919050565b60006200044a8262000451565b9050919050565b600073ffffffffffffffffffffffffffffffffffffffff82169050919050565b60005b838110156200049157808201518184015260208101905062000474565b83811115620004a1576000848401525b50505050565b60006002820490506001821680620004c057607f821691505b60208210811415620004d757620004d662000513565b5b50919050565b620004e88262000571565b810181811067ffffffffffffffff821117156200050a576200050962000542565b5b80604052505050565b7f4e487b7100000000000000000000000000000000000000000000000000000000600052602260045260246000fd5b7f4e487b7100000000000000000000000000000000000000000000000000000000600052604160045260246000fd5b6000601f19601f8301169050919050565b6200058d816200043d565b81146200059957600080fd5b50565b6121eb80620005ac6000396000f3fe608060405234801561001057600080fd5b50600436106100f55760003560e01c80638da5cb5b11610097578063dfa1416311610066578063dfa141631461024e578063e7fb74c71461027e578063f2fde38b1461029a578063f9e38f9c146102b6576100f5565b80638da5cb5b146101da578063cb279389146101f8578063cd5a06e514610216578063cf2ebe0c14610232576100f5565b80633129e773116100d35780633129e77314610166578063715018a61461019657806388ca74e2146101a0578063893d20e8146101bc576100f5565b806306fdde03146100fa5780630807a58d1461011857806317d7de7c14610148575b600080fd5b6101026102d2565b60405161010f9190611b14565b60405180910390f35b610132600480360381019061012d9190611674565b61030b565b60405161013f9190611cbc565b60405180910390f35b610150610535565b60405161015d9190611b14565b60405180910390f35b610180600480360381019061017b91906116db565b610572565b60405161018d9190611c9a565b60405180910390f35b61019e6106b6565b005b6101ba60048036038101906101b59190611556565b6106ca565b005b6101c4610837565b6040516101d19190611ac2565b60405180910390f35b6101e26108bc565b6040516101ef9190611ac2565b60405180910390f35b6102006108e5565b60405161020d9190611cbc565b60405180910390f35b610230600480360381019061022b91906115a8565b6108f7565b005b61024c600480360381019061024791906115e4565b610a61565b005b61026860048036038101906102639190611556565b610c3b565b6040516102759190611c78565b60405180910390f35b610298600480360381019061029391906116db565b610d97565b005b6102b460048036038101906102af9190611556565b6110c3565b005b6102d060048036038101906102cb91906116db565b611147565b005b6040518060400160405280600881526020017f455243323050617900000000000000000000000000000000000000000000000081525081565b6000610315611218565b60011515600360008573ffffffffffffffffffffffffffffffffffffffff1673ffffffffffffffffffffffffffffffffffffffff16815260200190815260200160002060010160149054906101000a900460ff161515146103ab576040517f08c379a00000000000000000000000000000000000000000000000000000000081526004016103a290611b98565b60405180910390fd5b60006040518060a0016040528060015481526020018681526020018573ffffffffffffffffffffffffffffffffffffffff1681526020018481526020016001151581525090508060026000600154815260200190815260200160002060008201518160000155602082015181600101908051906020019061042d929190611362565b5060408201518160020160006101000a81548173ffffffffffffffffffffffffffffffffffffffff021916908373ffffffffffffffffffffffffffffffffffffffff1602179055506060820151816003015560808201518160040160006101000a81548160ff021916908315150217905550905050600180546104b09190611d7a565b6001819055508373ffffffffffffffffffffffffffffffffffffffff16856040516104db9190611aab565b6040518091039020600180546104f19190611dd0565b7fd880714edee31fb5e11bdcbe063a2ac4280471bf225be293f3bf11bdadac2dbb60405160405180910390a46001805461052b9190611dd0565b9150509392505050565b60606040518060400160405280600881526020017f4552433230506179000000000000000000000000000000000000000000000000815250905090565b61057a6113e8565b600260008381526020019081526020016000206040518060a0016040529081600082015481526020016001820180546105b290611eb2565b80601f01602080910402602001604051908101604052809291908181526020018280546105de90611eb2565b801561062b5780601f106106005761010080835404028352916020019161062b565b820191906000526020600020905b81548152906001019060200180831161060e57829003601f168201915b505050505081526020016002820160009054906101000a900473ffffffffffffffffffffffffffffffffffffffff1673ffffffffffffffffffffffffffffffffffffffff1673ffffffffffffffffffffffffffffffffffffffff168152602001600382015481526020016004820160009054906101000a900460ff1615151515815250509050919050565b6106be611218565b6106c86000611296565b565b6106d2611218565b600360008273ffffffffffffffffffffffffffffffffffffffff1673ffffffffffffffffffffffffffffffffffffffff16815260200190815260200160002060010160149054906101000a900460ff16610761576040517f08c379a000000000000000000000000000000000000000000000000000000000815260040161075890611c58565b60405180910390fd5b6000600360008373ffffffffffffffffffffffffffffffffffffffff1673ffffffffffffffffffffffffffffffffffffffff16815260200190815260200160002060010160146101000a81548160ff0219169083151502179055507f975dd4d304b1d64bf425175c7b572760e774912c49a9813e2c02bfd1ebeb0d62600360008373ffffffffffffffffffffffffffffffffffffffff1673ffffffffffffffffffffffffffffffffffffffff16815260200190815260200160002060000160405161082c9190611b36565b60405180910390a150565b60003073ffffffffffffffffffffffffffffffffffffffff16638da5cb5b6040518163ffffffff1660e01b815260040160206040518083038186803b15801561087f57600080fd5b505afa158015610893573d6000803e3d6000fd5b505050506040513d601f19601f820116820180604052508101906108b7919061157f565b905090565b60008060009054906101000a900473ffffffffffffffffffffffffffffffffffffffff16905090565b60006108ef611218565b600154905090565b6108ff611218565b600360008373ffffffffffffffffffffffffffffffffffffffff1673ffffffffffffffffffffffffffffffffffffffff16815260200190815260200160002060010160149054906101000a900460ff1661098e576040517f08c379a000000000000000000000000000000000000000000000000000000000815260040161098590611b58565b60405180910390fd5b80600360008473ffffffffffffffffffffffffffffffffffffffff1673ffffffffffffffffffffffffffffffffffffffff16815260200190815260200160002060010160006101000a81548173ffffffffffffffffffffffffffffffffffffffff021916908373ffffffffffffffffffffffffffffffffffffffff1602179055508173ffffffffffffffffffffffffffffffffffffffff167f59476e526d6ddb0905db12d497acda9ebec95bd58420b00b62bf5f72b77db79d82604051610a559190611ac2565b60405180910390a25050565b610a69611218565b60001515600360008573ffffffffffffffffffffffffffffffffffffffff1673ffffffffffffffffffffffffffffffffffffffff16815260200190815260200160002060010160149054906101000a900460ff16151514610aff576040517f08c379a0000000000000000000000000000000000000000000000000000000008152600401610af690611bf8565b60405180910390fd5b600060405180606001604052808381526020018473ffffffffffffffffffffffffffffffffffffffff16815260200160011515815250905080600360008673ffffffffffffffffffffffffffffffffffffffff1673ffffffffffffffffffffffffffffffffffffffff1681526020019081526020016000206000820151816000019080519060200190610b93929190611362565b5060208201518160010160006101000a81548173ffffffffffffffffffffffffffffffffffffffff021916908373ffffffffffffffffffffffffffffffffffffffff16021790555060408201518160010160146101000a81548160ff0219169083151502179055509050507fb20aba3422828822fe4b1dcfae6a3af94086980e82071357ebf4f8a8ac6cc78482604051610c2d9190611b14565b60405180910390a150505050565b610c4361142f565b600360008373ffffffffffffffffffffffffffffffffffffffff1673ffffffffffffffffffffffffffffffffffffffff168152602001908152602001600020604051806060016040529081600082018054610c9d90611eb2565b80601f0160208091040260200160405190810160405280929190818152602001828054610cc990611eb2565b8015610d165780601f10610ceb57610100808354040283529160200191610d16565b820191906000526020600020905b815481529060010190602001808311610cf957829003601f168201915b505050505081526020016001820160009054906101000a900473ffffffffffffffffffffffffffffffffffffffff1673ffffffffffffffffffffffffffffffffffffffff1673ffffffffffffffffffffffffffffffffffffffff1681526020016001820160149054906101000a900460ff1615151515815250509050919050565b6002600082815260200190815260200160002060040160009054906101000a900460ff16610dfa576040517f08c379a0000000000000000000000000000000000000000000000000000000008152600401610df190611bd8565b60405180910390fd5b60006002600083815260200190815260200160002060020160009054906101000a900473ffffffffffffffffffffffffffffffffffffffff16905060008173ffffffffffffffffffffffffffffffffffffffff166370a08231336040518263ffffffff1660e01b8152600401610e709190611ac2565b60206040518083038186803b158015610e8857600080fd5b505afa158015610e9c573d6000803e3d6000fd5b505050506040513d601f19601f82011682018060405250810190610ec09190611704565b90508060026000858152602001908152602001600020600301541115610f1b576040517f08c379a0000000000000000000000000000000000000000000000000000000008152600401610f1290611bb8565b60405180910390fd5b8173ffffffffffffffffffffffffffffffffffffffff166323b872dd33600360006002600089815260200190815260200160002060020160009054906101000a900473ffffffffffffffffffffffffffffffffffffffff1673ffffffffffffffffffffffffffffffffffffffff1673ffffffffffffffffffffffffffffffffffffffff16815260200190815260200160002060010160009054906101000a900473ffffffffffffffffffffffffffffffffffffffff1660026000888152602001908152602001600020600301546040518463ffffffff1660e01b815260040161100693929190611add565b602060405180830381600087803b15801561102057600080fd5b505af1158015611034573d6000803e3d6000fd5b505050506040513d601f19601f82011682018060405250810190611058919061164b565b503373ffffffffffffffffffffffffffffffffffffffff16837fd73457218f6ab2c74e548247b8ccd99af11d7975e2beef89a0cd9743fb558da460026000878152602001908152602001600020600301546040516110b69190611cbc565b60405180910390a3505050565b6110cb611218565b600073ffffffffffffffffffffffffffffffffffffffff168173ffffffffffffffffffffffffffffffffffffffff16141561113b576040517f08c379a000000000000000000000000000000000000000000000000000000000815260040161113290611b78565b60405180910390fd5b61114481611296565b50565b61114f611218565b600115156002600083815260200190815260200160002060040160009054906101000a900460ff161515146111b9576040517f08c379a00000000000000000000000000000000000000000000000000000000081526004016111b090611c38565b60405180910390fd5b60006002600083815260200190815260200160002060040160006101000a81548160ff021916908315150217905550807f3d354d836c0997e6f0d3503a155eee7afdf69b299353b61007f9d71ccbb48a6a60405160405180910390a250565b61122061135a565b73ffffffffffffffffffffffffffffffffffffffff1661123e6108bc565b73ffffffffffffffffffffffffffffffffffffffff1614611294576040517f08c379a000000000000000000000000000000000000000000000000000000000815260040161128b90611c18565b60405180910390fd5b565b60008060009054906101000a900473ffffffffffffffffffffffffffffffffffffffff169050816000806101000a81548173ffffffffffffffffffffffffffffffffffffffff021916908373ffffffffffffffffffffffffffffffffffffffff1602179055508173ffffffffffffffffffffffffffffffffffffffff168173ffffffffffffffffffffffffffffffffffffffff167f8be0079c531659141344cd1fd0a4f28419497f9722a3daafe3b4186f6b6457e060405160405180910390a35050565b600033905090565b82805461136e90611eb2565b90600052602060002090601f01602090048101928261139057600085556113d7565b82601f106113a957805160ff19168380011785556113d7565b828001600101855582156113d7579182015b828111156113d65782518255916020019190600101906113bb565b5b5090506113e49190611468565b5090565b6040518060a001604052806000815260200160608152602001600073ffffffffffffffffffffffffffffffffffffffff168152602001600081526020016000151581525090565b604051806060016040528060608152602001600073ffffffffffffffffffffffffffffffffffffffff1681526020016000151581525090565b5b80821115611481576000816000905550600101611469565b5090565b600061149861149384611cfc565b611cd7565b9050828152602081018484840111156114b057600080fd5b6114bb848285611e70565b509392505050565b6000813590506114d281612170565b92915050565b6000815190506114e781612170565b92915050565b6000815190506114fc81612187565b92915050565b600082601f83011261151357600080fd5b8135611523848260208601611485565b91505092915050565b60008135905061153b8161219e565b92915050565b6000815190506115508161219e565b92915050565b60006020828403121561156857600080fd5b6000611576848285016114c3565b91505092915050565b60006020828403121561159157600080fd5b600061159f848285016114d8565b91505092915050565b600080604083850312156115bb57600080fd5b60006115c9858286016114c3565b92505060206115da858286016114c3565b9150509250929050565b6000806000606084860312156115f957600080fd5b6000611607868287016114c3565b9350506020611618868287016114c3565b925050604084013567ffffffffffffffff81111561163557600080fd5b61164186828701611502565b9150509250925092565b60006020828403121561165d57600080fd5b600061166b848285016114ed565b91505092915050565b60008060006060848603121561168957600080fd5b600084013567ffffffffffffffff8111156116a357600080fd5b6116af86828701611502565b93505060206116c0868287016114c3565b92505060406116d18682870161152c565b9150509250925092565b6000602082840312156116ed57600080fd5b60006116fb8482850161152c565b91505092915050565b60006020828403121561171657600080fd5b600061172484828501611541565b91505092915050565b61173681611e04565b82525050565b61174581611e04565b82525050565b61175481611e16565b82525050565b61176381611e4c565b82525050565b600061177482611d42565b61177e8185611d4d565b935061178e818560208601611e7f565b61179781611fa2565b840191505092915050565b60006117ad82611d42565b6117b78185611d5e565b93506117c7818560208601611e7f565b6117d081611fa2565b840191505092915050565b60006117e682611d42565b6117f08185611d6f565b9350611800818560208601611e7f565b80840191505092915050565b6000815461181981611eb2565b6118238186611d5e565b9450600182166000811461183e576001811461185057611883565b60ff1983168652602086019350611883565b61185985611d2d565b60005b8381101561187b5781548189015260018201915060208101905061185c565b808801955050505b50505092915050565b6000611899601983611d5e565b91506118a482611fb3565b602082019050919050565b60006118bc602683611d5e565b91506118c782611fdc565b604082019050919050565b60006118df601283611d5e565b91506118ea8261202b565b602082019050919050565b6000611902601b83611d5e565b915061190d82612054565b602082019050919050565b6000611925601583611d5e565b91506119308261207d565b602082019050919050565b6000611948601683611d5e565b9150611953826120a6565b602082019050919050565b600061196b602083611d5e565b9150611976826120cf565b602082019050919050565b600061198e602583611d5e565b9150611999826120f8565b604082019050919050565b60006119b1601383611d5e565b91506119bc82612147565b602082019050919050565b600060608301600083015184820360008601526119e48282611769565b91505060208301516119f9602086018261172d565b506040830151611a0c604086018261174b565b508091505092915050565b600060a083016000830151611a2f6000860182611a8d565b5060208301518482036020860152611a478282611769565b9150506040830151611a5c604086018261175a565b506060830151611a6f6060860182611a8d565b506080830151611a82608086018261174b565b508091505092915050565b611a9681611e42565b82525050565b611aa581611e42565b82525050565b6000611ab782846117db565b915081905092915050565b6000602082019050611ad7600083018461173c565b92915050565b6000606082019050611af2600083018661173c565b611aff602083018561173c565b611b0c6040830184611a9c565b949350505050565b60006020820190508181036000830152611b2e81846117a2565b905092915050565b60006020820190508181036000830152611b50818461180c565b905092915050565b60006020820190508181036000830152611b718161188c565b9050919050565b60006020820190508181036000830152611b91816118af565b9050919050565b60006020820190508181036000830152611bb1816118d2565b9050919050565b60006020820190508181036000830152611bd1816118f5565b9050919050565b60006020820190508181036000830152611bf181611918565b9050919050565b60006020820190508181036000830152611c118161193b565b9050919050565b60006020820190508181036000830152611c318161195e565b9050919050565b60006020820190508181036000830152611c5181611981565b9050919050565b60006020820190508181036000830152611c71816119a4565b9050919050565b60006020820190508181036000830152611c9281846119c7565b905092915050565b60006020820190508181036000830152611cb48184611a17565b905092915050565b6000602082019050611cd16000830184611a9c565b92915050565b6000611ce1611cf2565b9050611ced8282611ee4565b919050565b6000604051905090565b600067ffffffffffffffff821115611d1757611d16611f73565b5b611d2082611fa2565b9050602081019050919050565b60008190508160005260206000209050919050565b600081519050919050565b600082825260208201905092915050565b600082825260208201905092915050565b600081905092915050565b6000611d8582611e42565b9150611d9083611e42565b9250827fffffffffffffffffffffffffffffffffffffffffffffffffffffffffffffffff03821115611dc557611dc4611f15565b5b828201905092915050565b6000611ddb82611e42565b9150611de683611e42565b925082821015611df957611df8611f15565b5b828203905092915050565b6000611e0f82611e22565b9050919050565b60008115159050919050565b600073ffffffffffffffffffffffffffffffffffffffff82169050919050565b6000819050919050565b6000611e5782611e5e565b9050919050565b6000611e6982611e22565b9050919050565b82818337600083830152505050565b60005b83811015611e9d578082015181840152602081019050611e82565b83811115611eac576000848401525b50505050565b60006002820490506001821680611eca57607f821691505b60208210811415611ede57611edd611f44565b5b50919050565b611eed82611fa2565b810181811067ffffffffffffffff82111715611f0c57611f0b611f73565b5b80604052505050565b7f4e487b7100000000000000000000000000000000000000000000000000000000600052601160045260246000fd5b7f4e487b7100000000000000000000000000000000000000000000000000000000600052602260045260246000fd5b7f4e487b7100000000000000000000000000000000000000000000000000000000600052604160045260246000fd5b6000601f19601f8301169050919050565b7f43757272656e6379206973206e6f7420617661696c61626c6500000000000000600082015250565b7f4f776e61626c653a206e6577206f776e657220697320746865207a65726f206160008201527f6464726573730000000000000000000000000000000000000000000000000000602082015250565b7f43757272656e6379206e6f7420666f756e640000000000000000000000000000600082015250565b7f427579657220686173206e6f20656e6f7567682062616c616e63650000000000600082015250565b7f4974656d206973206e6f7420617661696c61626c650000000000000000000000600082015250565b7f43757272656e637920616c726561647920616464656400000000000000000000600082015250565b7f4f776e61626c653a2063616c6c6572206973206e6f7420746865206f776e6572600082015250565b7f4974656d206e6f7420666f756e64206f7220616c72656164792064656163746960008201527f7661746564000000000000000000000000000000000000000000000000000000602082015250565b7f43757272656e6379206e6f742061637469766500000000000000000000000000600082015250565b61217981611e04565b811461218457600080fd5b50565b61219081611e16565b811461219b57600080fd5b50565b6121a781611e42565b81146121b257600080fd5b5056fea26469706673582212203764cf26481c029c158a25b0bbf45bc50d04e8462ff85a0528d2e9f324c918db64736f6c63430008040033",
  "linkReferences": {},
  "deployedLinkReferences": {}
}