{
  "_format": "hh-sol-artifact-1",
  "contractName": "ERC20Pay",
  "sourceName": "contracts/ERC20Pay.sol",
  "abi": [
    {
      "inputs": [
        {
          "internalType": "address",
          "name": "_currencyERC20Address",
          "type": "address"
        },
        {
          "internalType": "address",
          "name": "_payeeAddress",
          "type": "address"
        },
        {
          "internalType": "string",
          "name": "_currencyName",
          "type": "string"
        }
      ],
      "stateMutability": "nonpayable",
      "type": "constructor"
    },
    {
      "anonymous": false,
      "inputs": [
        {
          "indexed": false,
          "internalType": "string",
          "name": "currencyName",
          "type": "string"
        }
      ],
      "name": "CurrencyAdded",
      "type": "event"
    },
    {
      "anonymous": false,
      "inputs": [
        {
          "indexed": false,
          "internalType": "string",
          "name": "currencyName",
          "type": "string"
        }
      ],
      "name": "CurrencyDisabled",
      "type": "event"
    },
    {
      "anonymous": false,
      "inputs": [
        {
          "indexed": true,
          "internalType": "uint256",
          "name": "itemNo",
          "type": "uint256"
        },
        {
          "indexed": true,
          "internalType": "string",
          "name": "name",
          "type": "string"
        },
        {
          "indexed": true,
          "internalType": "address",
          "name": "currency",
          "type": "address"
        }
      ],
      "name": "ItemAdded",
      "type": "event"
    },
    {
      "anonymous": false,
      "inputs": [
        {
          "indexed": true,
          "internalType": "uint256",
          "name": "itemId",
          "type": "uint256"
        },
        {
          "indexed": true,
          "internalType": "address",
          "name": "buyer",
          "type": "address"
        },
        {
          "indexed": false,
          "internalType": "uint256",
          "name": "amount",
          "type": "uint256"
        },
        {
          "indexed": false,
          "internalType": "uint256",
          "name": "quantity",
          "type": "uint256"
        }
      ],
      "name": "ItemBought",
      "type": "event"
    },
    {
      "anonymous": false,
      "inputs": [
        {
          "indexed": true,
          "internalType": "uint256",
          "name": "itemNo",
          "type": "uint256"
        }
      ],
      "name": "ItemDeactivated",
      "type": "event"
    },
    {
      "anonymous": false,
      "inputs": [
        {
          "indexed": true,
          "internalType": "address",
          "name": "previousOwner",
          "type": "address"
        },
        {
          "indexed": true,
          "internalType": "address",
          "name": "newOwner",
          "type": "address"
        }
      ],
      "name": "OwnershipTransferred",
      "type": "event"
    },
    {
      "anonymous": false,
      "inputs": [
        {
          "indexed": true,
          "internalType": "address",
          "name": "currencyAddres",
          "type": "address"
        },
        {
          "indexed": false,
          "internalType": "address",
          "name": "newPayeeAddress",
          "type": "address"
        }
      ],
      "name": "PayeeAddressUpdated",
      "type": "event"
    },
    {
      "inputs": [
        {
          "internalType": "address",
          "name": "_ERC20ContractAddress",
          "type": "address"
        },
        {
          "internalType": "address",
          "name": "_payeeAddress",
          "type": "address"
        },
        {
          "internalType": "string",
          "name": "_currencyName",
          "type": "string"
        }
      ],
      "name": "addCurrency",
      "outputs": [],
      "stateMutability": "nonpayable",
      "type": "function"
    },
    {
      "inputs": [
        {
          "internalType": "string",
          "name": "_itemName",
          "type": "string"
        },
        {
          "internalType": "address",
          "name": "_currency",
          "type": "address"
        },
        {
          "internalType": "uint256",
          "name": "_price",
          "type": "uint256"
        },
        {
          "internalType": "uint256",
          "name": "_quantity",
          "type": "uint256"
        }
      ],
      "name": "addItem",
      "outputs": [
        {
          "internalType": "uint256",
          "name": "",
          "type": "uint256"
        }
      ],
      "stateMutability": "nonpayable",
      "type": "function"
    },
    {
      "inputs": [
        {
          "internalType": "uint256",
          "name": "_itemId",
          "type": "uint256"
        },
        {
          "internalType": "uint256",
          "name": "_desiredQuantity",
          "type": "uint256"
        }
      ],
      "name": "buyItem",
      "outputs": [],
      "stateMutability": "nonpayable",
      "type": "function"
    },
    {
      "inputs": [
        {
          "internalType": "uint256",
          "name": "_itemId",
          "type": "uint256"
        }
      ],
      "name": "deactivateItem",
      "outputs": [],
      "stateMutability": "nonpayable",
      "type": "function"
    },
    {
      "inputs": [
        {
          "internalType": "address",
          "name": "_ERC20ContractAddress",
          "type": "address"
        }
      ],
      "name": "disableCurrency",
      "outputs": [],
      "stateMutability": "nonpayable",
      "type": "function"
    },
    {
      "inputs": [
        {
          "internalType": "address",
          "name": "_currencyAddress",
          "type": "address"
        }
      ],
      "name": "getCurrency",
      "outputs": [
        {
          "components": [
            {
              "internalType": "string",
              "name": "name",
              "type": "string"
            },
            {
              "internalType": "address",
              "name": "payeeAddress",
              "type": "address"
            },
            {
              "internalType": "bool",
              "name": "isActive",
              "type": "bool"
            }
          ],
          "internalType": "struct ERC20Pay.Currency",
          "name": "",
          "type": "tuple"
        }
      ],
      "stateMutability": "view",
      "type": "function"
    },
    {
      "inputs": [
        {
          "internalType": "uint256",
          "name": "_itemId",
          "type": "uint256"
        }
      ],
      "name": "getItem",
      "outputs": [
        {
          "components": [
            {
              "internalType": "uint256",
              "name": "itemId",
              "type": "uint256"
            },
            {
              "internalType": "string",
              "name": "itemName",
              "type": "string"
            },
            {
              "internalType": "contract IERC20",
              "name": "currency",
              "type": "address"
            },
            {
              "internalType": "uint256",
              "name": "price",
              "type": "uint256"
            },
            {
              "internalType": "bool",
              "name": "available",
              "type": "bool"
            },
            {
              "internalType": "uint256",
              "name": "quantity",
              "type": "uint256"
            }
          ],
          "internalType": "struct ERC20Pay.Item",
          "name": "",
          "type": "tuple"
        }
      ],
      "stateMutability": "view",
      "type": "function"
    },
    {
      "inputs": [],
      "name": "getItemCounter",
      "outputs": [
        {
          "internalType": "uint256",
          "name": "",
          "type": "uint256"
        }
      ],
      "stateMutability": "view",
      "type": "function"
    },
    {
      "inputs": [],
      "name": "getName",
      "outputs": [
        {
          "internalType": "string",
          "name": "",
          "type": "string"
        }
      ],
      "stateMutability": "pure",
      "type": "function"
    },
    {
      "inputs": [],
      "name": "getOwner",
      "outputs": [
        {
          "internalType": "address",
          "name": "",
          "type": "address"
        }
      ],
      "stateMutability": "view",
      "type": "function"
    },
    {
      "inputs": [],
      "name": "name",
      "outputs": [
        {
          "internalType": "string",
          "name": "",
          "type": "string"
        }
      ],
      "stateMutability": "view",
      "type": "function"
    },
    {
      "inputs": [],
      "name": "owner",
      "outputs": [
        {
          "internalType": "address",
          "name": "",
          "type": "address"
        }
      ],
      "stateMutability": "view",
      "type": "function"
    },
    {
      "inputs": [],
      "name": "renounceOwnership",
      "outputs": [],
      "stateMutability": "nonpayable",
      "type": "function"
    },
    {
      "inputs": [
        {
          "internalType": "address",
          "name": "newOwner",
          "type": "address"
        }
      ],
      "name": "transferOwnership",
      "outputs": [],
      "stateMutability": "nonpayable",
      "type": "function"
    },
    {
      "inputs": [
        {
          "internalType": "address",
          "name": "_currencyAddress",
          "type": "address"
        },
        {
          "internalType": "address",
          "name": "_newPayeeAddress",
          "type": "address"
        }
      ],
      "name": "updatePayeeAddressOfCurrency",
      "outputs": [],
      "stateMutability": "nonpayable",
      "type": "function"
    }
  ],
  "bytecode": "0x60806040523480156200001157600080fd5b5060405162002b5738038062002b5783398181016040528101906200003791906200036f565b620000576200004b6200016a60201b60201c565b6200017260201b60201c565b600060405180606001604052808381526020018473ffffffffffffffffffffffffffffffffffffffff16815260200160011515815250905080600360008673ffffffffffffffffffffffffffffffffffffffff1673ffffffffffffffffffffffffffffffffffffffff1681526020019081526020016000206000820151816000019080519060200190620000ed92919062000236565b5060208201518160010160006101000a81548173ffffffffffffffffffffffffffffffffffffffff021916908373ffffffffffffffffffffffffffffffffffffffff16021790555060408201518160010160146101000a81548160ff0219169083151502179055509050506000600181905550505050506200059c565b600033905090565b60008060009054906101000a900473ffffffffffffffffffffffffffffffffffffffff169050816000806101000a81548173ffffffffffffffffffffffffffffffffffffffff021916908373ffffffffffffffffffffffffffffffffffffffff1602179055508173ffffffffffffffffffffffffffffffffffffffff168173ffffffffffffffffffffffffffffffffffffffff167f8be0079c531659141344cd1fd0a4f28419497f9722a3daafe3b4186f6b6457e060405160405180910390a35050565b8280546200024490620004a7565b90600052602060002090601f016020900481019282620002685760008555620002b4565b82601f106200028357805160ff1916838001178555620002b4565b82800160010185558215620002b4579182015b82811115620002b357825182559160200191906001019062000296565b5b509050620002c39190620002c7565b5090565b5b80821115620002e2576000816000905550600101620002c8565b5090565b6000620002fd620002f78462000407565b620003de565b9050828152602081018484840111156200031657600080fd5b6200032384828562000471565b509392505050565b6000815190506200033c8162000582565b92915050565b600082601f8301126200035457600080fd5b815162000366848260208601620002e6565b91505092915050565b6000806000606084860312156200038557600080fd5b600062000395868287016200032b565b9350506020620003a8868287016200032b565b925050604084015167ffffffffffffffff811115620003c657600080fd5b620003d48682870162000342565b9150509250925092565b6000620003ea620003fd565b9050620003f88282620004dd565b919050565b6000604051905090565b600067ffffffffffffffff82111562000425576200042462000542565b5b620004308262000571565b9050602081019050919050565b60006200044a8262000451565b9050919050565b600073ffffffffffffffffffffffffffffffffffffffff82169050919050565b60005b838110156200049157808201518184015260208101905062000474565b83811115620004a1576000848401525b50505050565b60006002820490506001821680620004c057607f821691505b60208210811415620004d757620004d662000513565b5b50919050565b620004e88262000571565b810181811067ffffffffffffffff821117156200050a576200050962000542565b5b80604052505050565b7f4e487b7100000000000000000000000000000000000000000000000000000000600052602260045260246000fd5b7f4e487b7100000000000000000000000000000000000000000000000000000000600052604160045260246000fd5b6000601f19601f8301169050919050565b6200058d816200043d565b81146200059957600080fd5b50565b6125ab80620005ac6000396000f3fe608060405234801561001057600080fd5b50600436106100f55760003560e01c80638da5cb5b11610097578063cf2ebe0c11610066578063cf2ebe0c1461024e578063dfa141631461026a578063f2fde38b1461029a578063f9e38f9c146102b6576100f5565b80638da5cb5b146101da5780639979c009146101f8578063cb27938914610214578063cd5a06e514610232576100f5565b8063715018a6116100d3578063715018a61461016657806374d90d051461017057806388ca74e2146101a0578063893d20e8146101bc576100f5565b806306fdde03146100fa57806317d7de7c146101185780633129e77314610136575b600080fd5b6101026102d2565b60405161010f9190611d99565b60405180910390f35b61012061030b565b60405161012d9190611d99565b60405180910390f35b610150600480360381019061014b91906118a2565b610348565b60405161015d9190611f5f565b60405180910390f35b61016e610496565b005b61018a60048036038101906101859190611827565b6104aa565b6040516101979190611f81565b60405180910390f35b6101ba60048036038101906101b59190611709565b6106e5565b005b6101c4610852565b6040516101d19190611d1e565b60405180910390f35b6101e26108d7565b6040516101ef9190611d1e565b60405180910390f35b610212600480360381019061020d91906118f4565b610900565b005b61021c610dbd565b6040516102299190611f81565b60405180910390f35b61024c6004803603810190610247919061175b565b610dcf565b005b61026860048036038101906102639190611797565b610f39565b005b610284600480360381019061027f9190611709565b611113565b6040516102919190611f3d565b60405180910390f35b6102b460048036038101906102af9190611709565b61126f565b005b6102d060048036038101906102cb91906118a2565b6112f3565b005b6040518060400160405280600881526020017f455243323050617900000000000000000000000000000000000000000000000081525081565b60606040518060400160405280600881526020017f4552433230506179000000000000000000000000000000000000000000000000815250905090565b61035061150e565b600260008381526020019081526020016000206040518060c001604052908160008201548152602001600182018054610388906121fa565b80601f01602080910402602001604051908101604052809291908181526020018280546103b4906121fa565b80156104015780601f106103d657610100808354040283529160200191610401565b820191906000526020600020905b8154815290600101906020018083116103e457829003601f168201915b505050505081526020016002820160009054906101000a900473ffffffffffffffffffffffffffffffffffffffff1673ffffffffffffffffffffffffffffffffffffffff1673ffffffffffffffffffffffffffffffffffffffff168152602001600382015481526020016004820160009054906101000a900460ff161515151581526020016005820154815250509050919050565b61049e6113c4565b6104a86000611442565b565b60006104b46113c4565b60011515600360008673ffffffffffffffffffffffffffffffffffffffff1673ffffffffffffffffffffffffffffffffffffffff16815260200190815260200160002060010160149054906101000a900460ff1615151461054a576040517f08c379a000000000000000000000000000000000000000000000000000000000815260040161054190611e3d565b60405180910390fd5b60006040518060c0016040528060015481526020018781526020018673ffffffffffffffffffffffffffffffffffffffff168152602001858152602001600115158152602001848152509050806002600060015481526020019081526020016000206000820151816000015560208201518160010190805190602001906105d292919061155c565b5060408201518160020160006101000a81548173ffffffffffffffffffffffffffffffffffffffff021916908373ffffffffffffffffffffffffffffffffffffffff1602179055506060820151816003015560808201518160040160006101000a81548160ff02191690831515021790555060a082015181600501559050506001805461065f9190612068565b6001819055508473ffffffffffffffffffffffffffffffffffffffff168660405161068a9190611d07565b6040518091039020600180546106a09190612118565b7fd880714edee31fb5e11bdcbe063a2ac4280471bf225be293f3bf11bdadac2dbb60405160405180910390a4600180546106da9190612118565b915050949350505050565b6106ed6113c4565b600360008273ffffffffffffffffffffffffffffffffffffffff1673ffffffffffffffffffffffffffffffffffffffff16815260200190815260200160002060010160149054906101000a900460ff1661077c576040517f08c379a000000000000000000000000000000000000000000000000000000000815260040161077390611f1d565b60405180910390fd5b6000600360008373ffffffffffffffffffffffffffffffffffffffff1673ffffffffffffffffffffffffffffffffffffffff16815260200190815260200160002060010160146101000a81548160ff0219169083151502179055507f975dd4d304b1d64bf425175c7b572760e774912c49a9813e2c02bfd1ebeb0d62600360008373ffffffffffffffffffffffffffffffffffffffff1673ffffffffffffffffffffffffffffffffffffffff1681526020019081526020016000206000016040516108479190611dbb565b60405180910390a150565b60003073ffffffffffffffffffffffffffffffffffffffff16638da5cb5b6040518163ffffffff1660e01b815260040160206040518083038186803b15801561089a57600080fd5b505afa1580156108ae573d6000803e3d6000fd5b505050506040513d601f19601f820116820180604052508101906108d29190611732565b905090565b60008060009054906101000a900473ffffffffffffffffffffffffffffffffffffffff16905090565b6002600083815260200190815260200160002060040160009054906101000a900460ff16610963576040517f08c379a000000000000000000000000000000000000000000000000000000000815260040161095a90611e9d565b60405180910390fd5b80600260008481526020019081526020016000206005015410156109bc576040517f08c379a00000000000000000000000000000000000000000000000000000000081526004016109b390611e5d565b60405180910390fd5b60006002600084815260200190815260200160002060020160009054906101000a900473ffffffffffffffffffffffffffffffffffffffff16905060008173ffffffffffffffffffffffffffffffffffffffff166370a08231336040518263ffffffff1660e01b8152600401610a329190611d1e565b60206040518083038186803b158015610a4a57600080fd5b505afa158015610a5e573d6000803e3d6000fd5b505050506040513d601f19601f82011682018060405250810190610a8291906118cb565b905080836002600087815260200190815260200160002060030154610aa791906120be565b1115610ae8576040517f08c379a0000000000000000000000000000000000000000000000000000000008152600401610adf90611e7d565b60405180910390fd5b8173ffffffffffffffffffffffffffffffffffffffff1663dd62ed3e33306040518363ffffffff1660e01b8152600401610b23929190611d39565b60206040518083038186803b158015610b3b57600080fd5b505afa158015610b4f573d6000803e3d6000fd5b505050506040513d601f19601f82011682018060405250810190610b7391906118cb565b836002600087815260200190815260200160002060030154610b9591906120be565b1115610bd6576040517f08c379a0000000000000000000000000000000000000000000000000000000008152600401610bcd90611dfd565b60405180910390fd5b8173ffffffffffffffffffffffffffffffffffffffff166323b872dd3360036000600260008a815260200190815260200160002060020160009054906101000a900473ffffffffffffffffffffffffffffffffffffffff1673ffffffffffffffffffffffffffffffffffffffff1673ffffffffffffffffffffffffffffffffffffffff16815260200190815260200160002060010160009054906101000a900473ffffffffffffffffffffffffffffffffffffffff1660026000898152602001908152602001600020600301546040518463ffffffff1660e01b8152600401610cc193929190611d62565b602060405180830381600087803b158015610cdb57600080fd5b505af1158015610cef573d6000803e3d6000fd5b505050506040513d601f19601f82011682018060405250810190610d1391906117fe565b50826002600086815260200190815260200160002060050154610d369190612118565b60026000868152602001908152602001600020600501819055503373ffffffffffffffffffffffffffffffffffffffff16847f8c912d39752dc1f52744615b409bb9cd946102bab9b0e6316d0a6ea0c3a1372a600260008881526020019081526020016000206003015486604051610daf929190611f9c565b60405180910390a350505050565b6000610dc76113c4565b600154905090565b610dd76113c4565b600360008373ffffffffffffffffffffffffffffffffffffffff1673ffffffffffffffffffffffffffffffffffffffff16815260200190815260200160002060010160149054906101000a900460ff16610e66576040517f08c379a0000000000000000000000000000000000000000000000000000000008152600401610e5d90611ddd565b60405180910390fd5b80600360008473ffffffffffffffffffffffffffffffffffffffff1673ffffffffffffffffffffffffffffffffffffffff16815260200190815260200160002060010160006101000a81548173ffffffffffffffffffffffffffffffffffffffff021916908373ffffffffffffffffffffffffffffffffffffffff1602179055508173ffffffffffffffffffffffffffffffffffffffff167f59476e526d6ddb0905db12d497acda9ebec95bd58420b00b62bf5f72b77db79d82604051610f2d9190611d1e565b60405180910390a25050565b610f416113c4565b60001515600360008573ffffffffffffffffffffffffffffffffffffffff1673ffffffffffffffffffffffffffffffffffffffff16815260200190815260200160002060010160149054906101000a900460ff16151514610fd7576040517f08c379a0000000000000000000000000000000000000000000000000000000008152600401610fce90611ebd565b60405180910390fd5b600060405180606001604052808381526020018473ffffffffffffffffffffffffffffffffffffffff16815260200160011515815250905080600360008673ffffffffffffffffffffffffffffffffffffffff1673ffffffffffffffffffffffffffffffffffffffff168152602001908152602001600020600082015181600001908051906020019061106b92919061155c565b5060208201518160010160006101000a81548173ffffffffffffffffffffffffffffffffffffffff021916908373ffffffffffffffffffffffffffffffffffffffff16021790555060408201518160010160146101000a81548160ff0219169083151502179055509050507fb20aba3422828822fe4b1dcfae6a3af94086980e82071357ebf4f8a8ac6cc784826040516111059190611d99565b60405180910390a150505050565b61111b6115e2565b600360008373ffffffffffffffffffffffffffffffffffffffff1673ffffffffffffffffffffffffffffffffffffffff168152602001908152602001600020604051806060016040529081600082018054611175906121fa565b80601f01602080910402602001604051908101604052809291908181526020018280546111a1906121fa565b80156111ee5780601f106111c3576101008083540402835291602001916111ee565b820191906000526020600020905b8154815290600101906020018083116111d157829003601f168201915b505050505081526020016001820160009054906101000a900473ffffffffffffffffffffffffffffffffffffffff1673ffffffffffffffffffffffffffffffffffffffff1673ffffffffffffffffffffffffffffffffffffffff1681526020016001820160149054906101000a900460ff1615151515815250509050919050565b6112776113c4565b600073ffffffffffffffffffffffffffffffffffffffff168173ffffffffffffffffffffffffffffffffffffffff1614156112e7576040517f08c379a00000000000000000000000000000000000000000000000000000000081526004016112de90611e1d565b60405180910390fd5b6112f081611442565b50565b6112fb6113c4565b600115156002600083815260200190815260200160002060040160009054906101000a900460ff16151514611365576040517f08c379a000000000000000000000000000000000000000000000000000000000815260040161135c90611efd565b60405180910390fd5b60006002600083815260200190815260200160002060040160006101000a81548160ff021916908315150217905550807f3d354d836c0997e6f0d3503a155eee7afdf69b299353b61007f9d71ccbb48a6a60405160405180910390a250565b6113cc611506565b73ffffffffffffffffffffffffffffffffffffffff166113ea6108d7565b73ffffffffffffffffffffffffffffffffffffffff1614611440576040517f08c379a000000000000000000000000000000000000000000000000000000000815260040161143790611edd565b60405180910390fd5b565b60008060009054906101000a900473ffffffffffffffffffffffffffffffffffffffff169050816000806101000a81548173ffffffffffffffffffffffffffffffffffffffff021916908373ffffffffffffffffffffffffffffffffffffffff1602179055508173ffffffffffffffffffffffffffffffffffffffff168173ffffffffffffffffffffffffffffffffffffffff167f8be0079c531659141344cd1fd0a4f28419497f9722a3daafe3b4186f6b6457e060405160405180910390a35050565b600033905090565b6040518060c001604052806000815260200160608152602001600073ffffffffffffffffffffffffffffffffffffffff16815260200160008152602001600015158152602001600081525090565b828054611568906121fa565b90600052602060002090601f01602090048101928261158a57600085556115d1565b82601f106115a357805160ff19168380011785556115d1565b828001600101855582156115d1579182015b828111156115d05782518255916020019190600101906115b5565b5b5090506115de919061161b565b5090565b604051806060016040528060608152602001600073ffffffffffffffffffffffffffffffffffffffff1681526020016000151581525090565b5b8082111561163457600081600090555060010161161c565b5090565b600061164b61164684611fea565b611fc5565b90508281526020810184848401111561166357600080fd5b61166e8482856121b8565b509392505050565b60008135905061168581612530565b92915050565b60008151905061169a81612530565b92915050565b6000815190506116af81612547565b92915050565b600082601f8301126116c657600080fd5b81356116d6848260208601611638565b91505092915050565b6000813590506116ee8161255e565b92915050565b6000815190506117038161255e565b92915050565b60006020828403121561171b57600080fd5b600061172984828501611676565b91505092915050565b60006020828403121561174457600080fd5b60006117528482850161168b565b91505092915050565b6000806040838503121561176e57600080fd5b600061177c85828601611676565b925050602061178d85828601611676565b9150509250929050565b6000806000606084860312156117ac57600080fd5b60006117ba86828701611676565b93505060206117cb86828701611676565b925050604084013567ffffffffffffffff8111156117e857600080fd5b6117f4868287016116b5565b9150509250925092565b60006020828403121561181057600080fd5b600061181e848285016116a0565b91505092915050565b6000806000806080858703121561183d57600080fd5b600085013567ffffffffffffffff81111561185757600080fd5b611863878288016116b5565b945050602061187487828801611676565b9350506040611885878288016116df565b9250506060611896878288016116df565b91505092959194509250565b6000602082840312156118b457600080fd5b60006118c2848285016116df565b91505092915050565b6000602082840312156118dd57600080fd5b60006118eb848285016116f4565b91505092915050565b6000806040838503121561190757600080fd5b6000611915858286016116df565b9250506020611926858286016116df565b9150509250929050565b6119398161214c565b82525050565b6119488161214c565b82525050565b6119578161215e565b82525050565b61196681612194565b82525050565b600061197782612030565b611981818561203b565b93506119918185602086016121c7565b61199a816122ea565b840191505092915050565b60006119b082612030565b6119ba818561204c565b93506119ca8185602086016121c7565b6119d3816122ea565b840191505092915050565b60006119e982612030565b6119f3818561205d565b9350611a038185602086016121c7565b80840191505092915050565b60008154611a1c816121fa565b611a26818661204c565b94506001821660008114611a415760018114611a5357611a86565b60ff1983168652602086019350611a86565b611a5c8561201b565b60005b83811015611a7e57815481890152600182019150602081019050611a5f565b808801955050505b50505092915050565b6000611a9c60198361204c565b9150611aa7826122fb565b602082019050919050565b6000611abf601d8361204c565b9150611aca82612324565b602082019050919050565b6000611ae260268361204c565b9150611aed8261234d565b604082019050919050565b6000611b0560128361204c565b9150611b108261239c565b602082019050919050565b6000611b2860238361204c565b9150611b33826123c5565b604082019050919050565b6000611b4b601b8361204c565b9150611b5682612414565b602082019050919050565b6000611b6e60158361204c565b9150611b798261243d565b602082019050919050565b6000611b9160168361204c565b9150611b9c82612466565b602082019050919050565b6000611bb460208361204c565b9150611bbf8261248f565b602082019050919050565b6000611bd760258361204c565b9150611be2826124b8565b604082019050919050565b6000611bfa60138361204c565b9150611c0582612507565b602082019050919050565b60006060830160008301518482036000860152611c2d828261196c565b9150506020830151611c426020860182611930565b506040830151611c55604086018261194e565b508091505092915050565b600060c083016000830151611c786000860182611ce9565b5060208301518482036020860152611c90828261196c565b9150506040830151611ca5604086018261195d565b506060830151611cb86060860182611ce9565b506080830151611ccb608086018261194e565b5060a0830151611cde60a0860182611ce9565b508091505092915050565b611cf28161218a565b82525050565b611d018161218a565b82525050565b6000611d1382846119de565b915081905092915050565b6000602082019050611d33600083018461193f565b92915050565b6000604082019050611d4e600083018561193f565b611d5b602083018461193f565b9392505050565b6000606082019050611d77600083018661193f565b611d84602083018561193f565b611d916040830184611cf8565b949350505050565b60006020820190508181036000830152611db381846119a5565b905092915050565b60006020820190508181036000830152611dd58184611a0f565b905092915050565b60006020820190508181036000830152611df681611a8f565b9050919050565b60006020820190508181036000830152611e1681611ab2565b9050919050565b60006020820190508181036000830152611e3681611ad5565b9050919050565b60006020820190508181036000830152611e5681611af8565b9050919050565b60006020820190508181036000830152611e7681611b1b565b9050919050565b60006020820190508181036000830152611e9681611b3e565b9050919050565b60006020820190508181036000830152611eb681611b61565b9050919050565b60006020820190508181036000830152611ed681611b84565b9050919050565b60006020820190508181036000830152611ef681611ba7565b9050919050565b60006020820190508181036000830152611f1681611bca565b9050919050565b60006020820190508181036000830152611f3681611bed565b9050919050565b60006020820190508181036000830152611f578184611c10565b905092915050565b60006020820190508181036000830152611f798184611c60565b905092915050565b6000602082019050611f966000830184611cf8565b92915050565b6000604082019050611fb16000830185611cf8565b611fbe6020830184611cf8565b9392505050565b6000611fcf611fe0565b9050611fdb828261222c565b919050565b6000604051905090565b600067ffffffffffffffff821115612005576120046122bb565b5b61200e826122ea565b9050602081019050919050565b60008190508160005260206000209050919050565b600081519050919050565b600082825260208201905092915050565b600082825260208201905092915050565b600081905092915050565b60006120738261218a565b915061207e8361218a565b9250827fffffffffffffffffffffffffffffffffffffffffffffffffffffffffffffffff038211156120b3576120b261225d565b5b828201905092915050565b60006120c98261218a565b91506120d48361218a565b9250817fffffffffffffffffffffffffffffffffffffffffffffffffffffffffffffffff048311821515161561210d5761210c61225d565b5b828202905092915050565b60006121238261218a565b915061212e8361218a565b9250828210156121415761214061225d565b5b828203905092915050565b60006121578261216a565b9050919050565b60008115159050919050565b600073ffffffffffffffffffffffffffffffffffffffff82169050919050565b6000819050919050565b600061219f826121a6565b9050919050565b60006121b18261216a565b9050919050565b82818337600083830152505050565b60005b838110156121e55780820151818401526020810190506121ca565b838111156121f4576000848401525b50505050565b6000600282049050600182168061221257607f821691505b602082108114156122265761222561228c565b5b50919050565b612235826122ea565b810181811067ffffffffffffffff82111715612254576122536122bb565b5b80604052505050565b7f4e487b7100000000000000000000000000000000000000000000000000000000600052601160045260246000fd5b7f4e487b7100000000000000000000000000000000000000000000000000000000600052602260045260246000fd5b7f4e487b7100000000000000000000000000000000000000000000000000000000600052604160045260246000fd5b6000601f19601f8301169050919050565b7f43757272656e6379206973206e6f7420617661696c61626c6500000000000000600082015250565b7f506c6561736520636865636b20616c6c6f77616e636520616d6f756e74000000600082015250565b7f4f776e61626c653a206e6577206f776e657220697320746865207a65726f206160008201527f6464726573730000000000000000000000000000000000000000000000000000602082015250565b7f43757272656e6379206e6f7420666f756e640000000000000000000000000000600082015250565b7f44657369726564207175616e74697479206973206f766572207468616e20737460008201527f6f636b0000000000000000000000000000000000000000000000000000000000602082015250565b7f427579657220686173206e6f20656e6f7567682062616c616e63650000000000600082015250565b7f4974656d206973206e6f7420617661696c61626c650000000000000000000000600082015250565b7f43757272656e637920616c726561647920616464656400000000000000000000600082015250565b7f4f776e61626c653a2063616c6c6572206973206e6f7420746865206f776e6572600082015250565b7f4974656d206e6f7420666f756e64206f7220616c72656164792064656163746960008201527f7661746564000000000000000000000000000000000000000000000000000000602082015250565b7f43757272656e6379206e6f742061637469766500000000000000000000000000600082015250565b6125398161214c565b811461254457600080fd5b50565b6125508161215e565b811461255b57600080fd5b50565b6125678161218a565b811461257257600080fd5b5056fea2646970667358221220981cce3a405af5968d6a2e1d9bc99a151ca1dc21e075067d6bcaaa1f67ad33b364736f6c63430008040033",
  "linkReferences": {},
  "deployedLinkReferences": {}
}